:020000040800F2
:1000000000800120210600081512000823120008B4
:10001000291200082F120008351200080000000005
:100020000000000000000000000000003B1200087B
:10003000491200080000000057120008651200086D
:1000400071060008710600087106000871060008B4
:1000500071060008710600087106000871060008A4
:100060007106000871060008710600087106000894
:100070007106000871060008710600087106000884
:100080007106000871060008710600087106000874
:100090007106000871060008710600087106000864
:1000A0007106000871060008710600087106000854
:1000B0007106000871060008710600087106000844
:1000C0007106000871060008710600087106000834
:1000D0007106000871060008711200087106000818
:1000E0007106000871060008710600087106000814
:1000F0007106000871060008710600087106000804
:1001000071060008710600087106000871060008F3
:1001100071060008710600087106000871060008E3
:1001200071060008710600087106000871060008D3
:1001300071060008710600087106000871060008C3
:1001400071060008710600087106000871060008B3
:1001500071060008710600087106000871060008A3
:100160007106000871060008710600087106000893
:100170007106000871060008710600080000000002
:08018000710600087106000879
:1001900010B5054C237833B9044B13B10448AFF3C1
:1001A00000800123237010BD601A002000000000B1
:1001B000E0C7000808B5034B1BB103490348AFF380
:1001C000008008BD00000000641A0020E0C700089D
:1001D000A3F5803A704700BF174B002B08BF134BA5
:1001E0009D46FFF7F5FF00218B460F461348144A42
:1001F000121A0BF075FD0E4B002B00D098470D4BDB
:10020000002B00D098470020002104000D000D486D
:10021000002802D00C48AFF300800BF03DFD200019
:10022000290000F0D9FD0BF023FD00BF00000800FD
:10023000000000000000000000000000601A002024
:10024000501B0020000000000000000068C90008EA
:1002500000000020601A0020601A0020501B0020BF
:1002600053B94AB9002908BF00281CBF4FF0FF311D
:100270004FF0FF3000F074B9ADF1080C6DE904CE19
:1002800000F006F8DDF804E0DDE9022304B0704771
:100290002DE9F047089D04468E46002B4DD18A4239
:1002A000944669D9B2FA82F252B101FA02F3C2F16C
:1002B000200120FA01F10CFA02FC41EA030E9440FD
:1002C0004FEA1C48210CBEFBF8F61FFA8CF708FB1E
:1002D00016E341EA034306FB07F199420AD91CEBF6
:1002E000030306F1FF3080F01F81994240F21C8128
:1002F000023E63445B1AA4B2B3FBF8F008FB103370
:1003000044EA034400FB07F7A7420AD91CEB0404A4
:1003100000F1FF3380F00A81A74240F20781644474
:10032000023840EA0640E41B00261DB1D4400023F9
:10033000C5E900433146BDE8F0878B4209D9002D5D
:1003400000F0EF800026C5E9000130463146BDE8E7
:10035000F087B3FA83F6002E4AD18B4202D3824251
:1003600000F2F980841A61EB030301209E46002D00
:10037000E0D0C5E9004EDDE702B9FFDEB2FA82F255
:10038000002A40F09280A1EB0C014FEA1C471FFAB3
:100390008CFE0126200CB1FBF7F307FB131140EA9A
:1003A00001410EFB03F0884208D91CEB010103F167
:1003B000FF3802D2884200F2CB804346091AA4B229
:1003C000B1FBF7F007FB101144EA01440EFB00FEFD
:1003D000A64508D91CEB040400F1FF3102D2A64562
:1003E00000F2BB800846A4EB0E0440EA03409CE701
:1003F000C6F12007B34022FA07FC4CEA030C20FAAE
:1004000007F401FA06F31C43F9404FEA1C4900FACD
:1004100006F3B1FBF9F8200C1FFA8CFE09FB18114A
:1004200040EA014108FB0EF0884202FA06F20BD9BD
:100430001CEB010108F1FF3A80F08880884240F20D
:100440008580A8F102086144091AA4B2B1FBF9F051
:1004500009FB101144EA014100FB0EFE8E4508D94C
:100460001CEB010100F1FF346CD28E456AD90238D1
:10047000614440EA0840A0FB0294A1EB0E01A142B6
:10048000C846A64656D353D05DB1B3EB080261EB24
:100490000E0101FA07F722FA06F3F1401F43C5E9FE
:1004A000007100263146BDE8F087C2F12003D84034
:1004B0000CFA02FC21FA03F3914001434FEA1C4776
:1004C0001FFA8CFEB3FBF7F007FB10360B0C43EA68
:1004D000064300FB0EF69E4204FA02F408D91CEB18
:1004E000030300F1FF382FD29E422DD90238634416
:1004F0009B1B89B2B3FBF7F607FB163341EA0341B6
:1005000006FB0EF38B4208D91CEB010106F1FF3804
:1005100016D28B4214D9023E6144C91A46EA0046FB
:1005200038E72E46284605E70646E3E61846F8E68D
:100530004B45A9D2B9EB020864EB0C0E0138A3E7D6
:100540004646EAE7204694E74046D1E7D0467BE7B7
:10055000023B614432E7304609E76444023842E72F
:10056000704700BF034613F8012B002AFBD1181A6D
:10057000013870470000000000000000000000008B
:1005800001F0FF01102A2BDB10F0070F08D010F844
:10059000013B013A8B422DD010F0070F42B3F6D148
:1005A000F0B441EA012141EA014122F007047FF061
:1005B00000070023F0E80256083C85EA010586EAB8
:1005C000010685FA47F5A3FA87F586FA47F6A5FAF4
:1005D00087F68EB9EED1F0BC01F0FF0102F0070200
:1005E00032B110F8013B013A83EA010313B1F8D1AB
:1005F0000020704701387047002D06BF354603388C
:10060000073815F0010F07D1013015F4807F02BFC4
:10061000013015F4C03F0130F0BC0138704700BF15
:10062000DFF834D000F026F8002103E00B4B5B58D4
:10063000435004310A480B4B42189A42F6D30A4AF7
:1006400002E0002342F8043B084B9A42F9D30BF036
:1006500023FB00F0C1FBFEE70080012068C9000811
:1006600000000020601A0020601A0020501B0020AB
:10067000FEE7000080B400AF174BD3F88830164A6D
:1006800043F47003C2F88830144B1B68134A43F0DC
:1006900001031360114B00229A60104B1B680F4A34
:1006A00023F0A85323F4102313600C4B4FF4805213
:1006B000DA600A4B1B68094A23F480231360074B56
:1006C00000229A61044B4FF000629A6000BFBD4661
:1006D0005DF8047B704700BF00ED00E000100240B1
:1006E00080B487B000AF0023FB6000237B61002350
:1006F0003B610223BB6000237B6002233B604F4BC6
:100700001B6803F00803002B07D14C4BD3F894303F
:100710001B0A03F00F037B6105E0484B1B681B09B4
:1007200003F00F037B61464A7B6952F823307B61FB
:10073000424B9B6803F00C030C2B66D801A252F8C5
:1007400023F000BF790700080B0800080B08000819
:100750000B080008810700080B0800080B080008B8
:100760000B080008890700080B0800080B080008A0
:100770000B08000891070008324A7B69136048E0C3
:10078000304B314A1A6044E02E4B304A1A6040E048
:100790002A4BDB6803F003037B60284BDB681B09F3
:1007A00003F0070301333B607B68022B03D07B68B7
:1007B000032B06D00BE0244A3B68B2FBF3F33B610A
:1007C0000BE0224A3B68B2FBF3F33B6105E07A6938
:1007D0003B68B2FBF3F33B6100BF184BDB681B0ABD
:1007E00003F07F023B6902FB03F33B61134BDB68C1
:1007F0005B0E03F0030301335B00BB603A69BB6827
:10080000B2FBF3F30F4A136003E00E4A7B691360F7
:1008100000BF0A4B9B681B0903F00F030C4AD35C13
:10082000FB60084B1A68FB6822FA03F3054A136061
:1008300000BF1C37BD465DF8047B704700100240C6
:10084000DCC80008040000200024F40000127A0034
:10085000C4C8000880B400AF024B1846BD465DF81E
:10086000047B70470007010280B588B000AF0346E3
:10087000FB7107F10C0300221A605A609A60DA607B
:100880001A61FB79002B0BD1104BDB6C0F4A43F044
:100890000103D3640D4BDB6C03F00103BB60BB6849
:1008A0002023FB6001233B6100237B610223BB61AA
:1008B000FB79074A52F8233007F10C02114618461B
:1008C00001F076FA00BF2037BD4680BD001002401F
:1008D0000800002080B588B000AF0346FB71FB79AB
:1008E0000B4A52F8233020210022184601F016FD51
:1008F0002023FB60FB79064A52F82330FA68114640
:10090000184601F0FFFB00BF2037BD4680BD00BF89
:100910000800002080B582B000AF0346FB71FB7970
:10092000054A52F8233020210122184601F0F6FC36
:1009300000BF0837BD4680BD0800002080B582B0EA
:1009400000AF0346FB71FB79054A52F823302021A2
:100950000022184601F0E2FC00BF0837BD4680BD0A
:100960000800002080B582B000AF0346FB71FB7920
:10097000054A52F8233020221146184601F0E6FCC1
:1009800000BF0837BD4680BD0800002080B588B094
:1009900000AF03460A46FB711346BB7107F10C0317
:1009A00000221A605A609A60DA601A61FB79002BA3
:1009B0000BD1244BDB6C234A43F00403D364214B5B
:1009C000DB6C03F00403BB60BB68BB79002B13D165
:1009D0004FF40053FB6000233B6100237B61022343
:1009E000BB61FB79184A52F8233007F10C0211461B
:1009F000184601F0DDF921E0BB79012B1ED14FF43F
:100A00000053FB60114B3B6100237B610223BB6100
:100A1000FB790D4A52F8233007F10C0211461846B3
:100A200001F0C6F928235BB200220F21184606F018
:100A300020FF28235BB2184606F037FF00BF20379F
:100A4000BD4680BD001002400C00002000002110B7
:100A500080B588B000AF0346FB714FF40053FB60D4
:100A600028235BB2184606F02EFFFB79054A52F8A0
:100A70002330FA681146184601F044FB00BF2037C6
:100A8000BD4680BD0C00002080B582B000AF03469B
:100A9000FB71FB79064A52F823304FF4005211469D
:100AA000184601F023FC034618460837BD4680BDB2
:100AB0000C00002080B400AF00BFBD465DF8047B91
:100AC000704780B400AF01231846BD465DF8047B33
:100AD000704780B582B000AF786039600BF0C2F823
:100AE000034616221A604FF0FF3318460837BD46FA
:100AF00080BD80B582B000AF78604FF0FF3178687C
:100B0000FFF7E7FFFEE780B586B000AFF860B96099
:100B10007A6000237B610AE0AFF300800146BB6886
:100B20005A1CBA60CAB21A707B6901337B617A6958
:100B30007B689A42F0DB7B6818461837BD4680BD5B
:100B400080B586B000AFF860B9607A6000237B6141
:100B500009E0BB685A1CBA601B781846AFF30080E6
:100B60007B6901337B617A697B689A42F1DB7B6840
:100B700018461837BD4680BD80B483B000AF78609A
:100B80004FF0FF3318460C37BD465DF8047B7047C5
:100B900080B483B000AF786039603B684FF4005296
:100BA0005A60002318460C37BD465DF8047B704739
:100BB00080B483B000AF7860012318460C37BD467F
:100BC0005DF8047B704780B485B000AFF860B96011
:100BD0007A60002318461437BD465DF8047B7047E1
:100BE0000EB480B482B000AF78604FF0FF33184687
:100BF0000837BD465DF8047B03B0704780B582B00E
:100C000000AF78600BF02EF803460A221A604FF00E
:100C1000FF3318460837BD4680BD80B582B000AFAF
:100C200078600BF01FF8034602221A604FF0FF3382
:100C300018460837BD4680BD80B483B000AF7860E9
:100C40004FF0FF3318460C37BD465DF8047B704704
:100C500080B483B000AF786039603B684FF40052D5
:100C60005A60002318460C37BD465DF8047B704778
:100C700080B582B000AF786039600AF0F3FF0346B8
:100C80001F221A604FF0FF3318460837BD4680BD5B
:100C900080B500AF0AF0E6FF03460B221A604FF062
:100CA000FF33184680BD80B584B000AFF860B960EE
:100CB0007A600AF0D7FF03460C221A604FF0FF3328
:100CC00018461037BD4680BD80B586B000AF78604D
:100CD000144A154BD31A7B617B693B61134B1B682C
:100CE000002B02D1114B124A1A60104B1A687B6814
:100CF00013443A699A4207D20AF0B4FF03460C2221
:100D00001A604FF0FF3309E0084B1B68FB60074B8C
:100D10001A687B681344054A1360FB681846183745
:100D2000BD4680BD0080012000040000801A002024
:100D3000501B002080B483B000AF0346FB7197F9CD
:100D40000730002B12DBFB7903F01F020A4997F9E9
:100D500007305B09012000FA02F2203341F823201A
:100D6000BFF34F8F00BFBFF36F8F00BF00BF0C37C3
:100D7000BD465DF8047B704700E100E080B483B0BD
:100D800000AF78607B681B6843F020027B681A60C4
:100D900000BF0C37BD465DF8047B704780B483B05C
:100DA00000AF78607B689B6843F001027B689A60C3
:100DB00000BF0C37BD465DF8047B704780B483B03C
:100DC00000AF78607B689B8C9BB2DBB218460C3717
:100DD000BD465DF8047B704780B594B000AF00F06D
:100DE00069FA00F0B9F80020FFF73EFD4B4B4C4A82
:100DF0001A604A4B4FF4E1325A60484B00229A6025
:100E0000464B0022DA60454B00221A61434B002218
:100E10009A61424B0C225A61404B0022DA613F48F2
:100E200001F0F9FA0346002B01D000F0DCF83D4B4D
:100E30003D4A1A603D4B3E4A1A603E4B00221A6002
:100E40003D4B00221A603648FFF798FF3448FFF701
:100E5000A5FF3A4B1B68394A43F080731360384B47
:100E600000221A60374B1B68364A43F001031360B7
:100E700000237B6432E00023BB64314B1B68FB63BF
:100E800000233B640FE0304ABB6C52F823203B6CDC
:100E90009B0050333B4443F8302CBB6C0133BB64A4
:100EA0003B6C01333B643B6C032BECDD07F120030F
:100EB000264918460AF0BDFDB863BB6CC72BDFD9C5
:100EC0001F4B1B687B637A6BFB6BD31A3B63FA6C1B
:100ED0003B6B1344FB647B6C01337B647B6C132B97
:100EE000C9DDFB6C1A4AA2FB03231A093B461949C8
:100EF00018460AF019FF0023FB643B461846FFF72B
:100F000031FB03469AB239464FF47A73034801F035
:100F10004BFC4FF47A7000F0C3FAA9E7881A00205E
:100F200000440040301B00200C1B00202C1B002024
:100F3000181B0020241B0020281B0020FCED00E0D3
:100F4000041000E0001000E0B00C00204C1900205C
:100F5000CDCCCCCC8CC8000880B596B000AF07F1E2
:100F6000440300221A605A609A60DA601A613B46B4
:100F70004422002118460AF0B3FE10233B600123EF
:100F8000BB6160233B620023FB610223BB62012340
:100F9000FB6201233B6328237B6302233B6407231B
:100FA000BB630423FB633B46184608F0E3FC03469F
:100FB000002B00D0FEE70F237B640323BB640023D8
:100FC000FB6400233B6500237B6507F14403042198
:100FD000184609F0B7F80346002B00D0FEE700BF23
:100FE0005837BD4680BD80B500AF0020FFF792FCAA
:100FF000FEE7000090B583B000AF124B1A68124BA9
:101000001B68591C10480160D4181048FFF7D6FE21
:10101000034623700C4B1B68092B0FD90C4B012284
:101020001A600C4B1B687B60064B1B68094A1360F7
:10103000044A7B681360044B00221A6000BF0C371F
:10104000BD4690BD301B0020241B00200044004002
:10105000281B00202C1B002080B582B000AF26206A
:10106000FFF768FE094BDB697B607B6803F00403D4
:10107000002B03D00020FFF74DFC02E00020FFF71B
:1010800049FC00BF0837BD4680BD00BF004400409A
:1010900080B58AB000AF7860254BDB6C244A43F002
:1010A0000103D364224BDB6C03F001033B613B691A
:1010B0001F4BDB6C1E4A43F00103D3641C4BDB6CFB
:1010C00003F00103FB60FB68194B9B6D184A43F466
:1010D00000339365164B9B6D03F40033BB60BB6814
:1010E00004237B610223BB610123FB6103233B6279
:1010F00007237B6207F1140319464FF0904000F07C
:1011000057FE08237B6107237B6207F1140319460E
:101110004FF0904000F04CFE01220021262006F006
:10112000A8FB262006F0C1FB00BF2837BD4680BDC6
:101130000010024080B582B000AF78600E4B9B6B10
:101140000D4A43F4003393630B4B9B6B0A4A23F421
:101150000033936304214FF0904000F0D3FF082147
:101160004FF0904000F0CEFF262006F0ACFB00BF11
:101170000837BD4680BD00BF0010024080B483B078
:1011800000AF78607B68DB6903F00403042B01D1B6
:10119000012300E0002318460C37BD465DF8047BB0
:1011A000704780B483B000AF78607B68DB6903F080
:1011B0002003202B01D1012300E0002318460C3727
:1011C000BD465DF8047B704780B483B000AF7860A3
:1011D0007B681B6803F02003202B01D1012300E072
:1011E000002318460C37BD465DF8047B704780B479
:1011F00083B000AF78607B689B6803F00103012B2C
:1012000001D1012300E0002318460C37BD465DF8EC
:10121000047B704780B400AF00BFBD465DF8047B1F
:10122000704780B400AFFEE780B400AFFEE780B443
:1012300000AFFEE780B400AFFEE780B400AF00BFB0
:10124000BD465DF8047B704780B400AF00BFBD466B
:101250005DF8047B704780B400AF00BFBD465DF809
:10126000047B704780B500AF00F0BAF800BF80BDC6
:1012700080B500AF0E48FFF794FF0346002B07D060
:101280000B48FFF7A1FF0346002B01D0FFF7B2FE8A
:101290000748FFF7ACFF0346002B07D00448FFF7D1
:1012A0006DFF0346002B01D0FFF7D6FE00BF80BDC7
:1012B0000044004080B582B000AF0023FB710320E2
:1012C00006F0CCFA0F2000F04FF80346002B02D0B6
:1012D0000123FB7101E000F039F8FB79184608376B
:1012E000BD4680BD80B500AF174B4FF0FF329A630B
:1012F000154B4FF0FF32DA63134B00229A63124B07
:101300000022DA63104B4FF0FF321A640E4B0022BA
:101310001A640D4B4FF0FF329A620B4B00229A6217
:10132000094B4FF0FF32DA62074B0022DA62064BBC
:101330004FF0FF321A63044B00221A6300F00DF8DD
:101340000023184680BD00BF0010024080B400AFEB
:1013500000BFBD465DF8047B704780B400AF00BF9E
:10136000BD465DF8047B704780B584B000AF7860FF
:101370000023FB73174B1B78002B23D0164B1A68E6
:10138000144B1B7819464FF47A73B3FBF1F3B2FB9D
:10139000F3F3184606F0A9FA0346002B0FD17B6839
:1013A0000F2B09D8002279684FF0FF3006F061FA60
:1013B0000A4A7B68136007E00123FB7304E0012302
:1013C000FB7301E00123FB73FB7B18461037BD461E
:1013D00080BD00BFD819002004000020D4190020CF
:1013E00080B400AF064B1B781A46064B1B681344AB
:1013F000044A136000BFBD465DF8047B704700BF20
:10140000D8190020341B002080B400AF034B1B68A8
:101410001846BD465DF8047B704700BF341B0020B2
:1014200080B400AF034B1B681846BD465DF8047BD3
:10143000704700BFD419002080B584B000AF0346C8
:10144000FB710023FB730E4B1B78FA799A4212D082
:101450000B4B1B78BB730A4AFB791370094B1B6853
:101460001846FFF781FF0346FB73FB7B002B02D07E
:10147000034ABB7B1370FB7B18461037BD4680BD0B
:10148000D8190020D419002080B400AF034B1B787A
:101490001846BD465DF8047B704700BFD819002090
:1014A00080B584B000AF7860FFF7AEFFB8607B68AE
:1014B000FB60FB68B3F1FF3F05D00A4B1B781A466F
:1014C000FB681344FB6000BFFFF79EFF0246BB684A
:1014D000D31AFA689A42F7D800BF00BF1037BD464A
:1014E00080BD00BFD819002080B400AF054B1B6839
:1014F000044A23F00203136000BFBD465DF8047B7D
:10150000704700BF10E000E080B400AF054B1B68DF
:10151000044A43F00203136000BFBD465DF8047B3C
:10152000704700BF10E000E080B400AF024B1846E7
:10153000BD465DF8047B704700000D0180B400AF2C
:10154000044B1B681B0C9BB21846BD465DF8047B20
:10155000704700BF002004E080B400AF044B1B685C
:10156000C3F30B031846BD465DF8047B704700BF0C
:10157000002004E080B400AF034B1B681846BD4652
:101580005DF8047B704700BF9075FF1F80B400AF0B
:10159000034B1B681846BD465DF8047B704700BFCF
:1015A0009475FF1F80B400AF034B1B681846BD46FF
:1015B0005DF8047B704700BF9875FF1F80B400AFD3
:1015C000054B5B68044A43F00103536000BFBD460E
:1015D0005DF8047B704700BF002004E080B400AFDA
:1015E000054B5B68044A23F00103536000BFBD460E
:1015F0005DF8047B704700BF002004E080B400AFBA
:10160000054B5B68044A43F00203536000BFBD46CC
:101610005DF8047B704700BF002004E080B400AF99
:10162000054B5B68044A23F00203536000BFBD46CC
:101630005DF8047B704700BF002004E080B400AF79
:10164000054B5B68044A43F00403536000BFBD468A
:101650005DF8047B704700BF002004E080B400AF59
:10166000054B5B68044A23F00403536000BFBD468A
:101670005DF8047B704700BF002004E080B400AF39
:10168000064BCA225A62054B53225A62044B01226E
:101690001A6000BFBD465DF8047B70470000014042
:1016A0000003204280B400AF034B01221A6000BF48
:1016B000BD465DF8047B70472000204280B400AF37
:1016C000034B00221A6000BFBD465DF8047B7047E3
:1016D0002000204280B483B000AF7860064B1B68C6
:1016E00023F0040204497B6813430B6000BF0C37EE
:1016F000BD465DF8047B70473000014080B483B084
:1017000000AF7860064B1B6823F0020204497B6837
:1017100013430B6000BF0C37BD465DF8047B704778
:101720003000014080B483B000AF7860064B5B6846
:1017300023F03F0204497B6813434B6000BF0C3722
:10174000BD465DF8047B70473000014080B582B033
:1017500000AF0F4B1B680E4A43F001031360FFF705
:1017600053FE786008E0FFF74FFE02467B68D31A0D
:101770000A2B01D9032306E0054B1B6803F008037D
:10178000002BF0D0002318460837BD4680BD00BFAF
:101790003000014080B400AF054B1B68044A23F0C1
:1017A0000103136000BFBD465DF8047B704700BFB6
:1017B0003000014080B400AF054B5B68044A43F43D
:1017C0008073536000BFBD465DF8047B704700BF67
:1017D0000000014080B400AF054B5B68044A23F46D
:1017E0008073536000BFBD465DF8047B704700BF47
:1017F0000000014080B586B000AFF860B960C7E96D
:10180000002300233B612F4B1B78012B01D10223C6
:1018100053E02C4B01221A704CF2503000F016FAB3
:101820000346FB75FB7D002B43D1264B00225A60FB
:10183000254B1B6803F48063002B09D0224B1B68E7
:10184000214A23F4806313601E4B02221A7702E0C0
:101850001C4B00221A77FB68002B07D1D7E9002325
:10186000B86800F049FA01233B6110E0FB68012BE6
:1018700002D0FB68022B0AD13B681946B86800F019
:1018800061FAFB68022B02D14FF480233B614CF2DA
:10189000503000F0DBF90346FB753B69002B06D0A6
:1018A000094B5A693B69DB43074913404B6106F01A
:1018B00073FF044B00221A70FB7D18461837BD4693
:1018C00080BD00BFDC1900200020024080B586B03A
:1018D00000AFF860B960C7E900230023FB75254B12
:1018E0001B78012B01D1022340E0224B01221A7008
:1018F000204B00225A60204B1B6803F48063002BAE
:1019000009D01D4B1B681C4A23F480631360194BDC
:1019100002221A7702E0174B00221A77FB68022B8B
:1019200003D1144B04221A7202E0124B03221A72E2
:10193000104ABB68D360104B5B690F4A43F0407399
:101940005361FB68002B05D1D7E90023B86800F08C
:10195000D3F90AE0FB68012B02D0FB68022B04D10B
:101960003B681946B86800F0EDF9FB7D184618375A
:10197000BD4680BDDC1900200020024080B584B047
:1019800000AF684B5B69674A23F4FF6323F00703EA
:101990005361644B5B69634A23F400435361624BB8
:1019A0001B7ADBB2042B05D15E4B5B695D4A23F4E5
:1019B000802353615B4B1A694CF2FA331340FB608E
:1019C000FB68002B45D0584B5A68FB681343564AB6
:1019D0005360FB6803F04043002B07D0514B9A69DA
:1019E000FB6803F040434F4913438B61FB6823F0CE
:1019F0004043002B04D04B4AFB6823F04043136163
:101A000006F0CAFE484B1B7AFB72FB7A012B05D10C
:101A1000454B5B69184600F093F817E0FB7A022B00
:101A200005D1414B1B69184600F08AF80EE0FB7A9D
:101A3000032B02D0FB7A042B05D13B4BDB68184605
:101A400000F07EF802E0002000F07AF8364B002229
:101A50001A72344B1B6903F00103002B4FD0314B3A
:101A600001221A61304B1B7ADBB2012B2BD12E4B9A
:101A70009B69013B2C4A93612B4B9B69002B13D034
:101A8000294B5B69184600F051F8274B5B6901331D
:101A9000254A5361244B5B697B60234B1B691946C4
:101AA000786806F043FE2AE01F4B4FF0FF325A6180
:101AB0001D4B00221A7206F06FFE1B4B5B69184625
:101AC00000F034F81BE006F067FE174B1B7AFB7240
:101AD000FB7A022B05D1144B1B69184600F026F83F
:101AE0000AE0FB7A032B02D0FB7A042B04D10E4BC5
:101AF000DB68184600F01AF80B4B00221A720A4BEA
:101B00001B7ADBB2002B08D1064B5B69054A23F038
:101B100040735361044B00221A7000BF1037BD465A
:101B200080BD00BF00200240DC19002080B483B0DB
:101B300000AF786000BF0C37BD465DF8047B70478E
:101B400080B483B000AF786000BF0C37BD465DF84D
:101B5000047B704780B483B000AF0023FB710B4B54
:101B60005B69002B0BDA094B094A9A60074B094A5B
:101B70009A60064B5B69002B01DA0123FB71FB794C
:101B800018460C37BD465DF8047B704700200240C4
:101B900023016745AB89EFCD80B400AF054B5B698E
:101BA000044A43F00043536100231846BD465DF8E4
:101BB000047B70470020024080B400AF094B5B6992
:101BC00003F08043002B07D0064B074ADA60054B31
:101BD000064ADA60002300E001231846BD465DF89E
:101BE000047B7047002002403B2A19087F6E5D4C41
:101BF00080B400AF054B5B69044A43F080435361F6
:101C000000231846BD465DF8047B70470020024063
:101C100080B500AF064B5B69054A43F00063536132
:101C20004CF2503000F012F80346184680BD00BF59
:101C30000020024080B400AF034B5B681846BD46ED
:101C40005DF8047B704700BFDC19002080B584B0CC
:101C500000AF7860FFF7D8FBF8600DE07B68B3F168
:101C6000FF3F09D0FFF7D0FB0246FB68D31A7A6822
:101C70009A4201D8032337E01D4B1B6903F48033DC
:101C8000002BEBD11A4B1A694CF2FA331340BB60AC
:101C9000BB68002B1ED0174B5A68BB681343154A0C
:101CA0005360BB6803F04043002B07D0104B9A6988
:101CB000BB6803F040430E4913438B61BB6823F0BC
:101CC0004043002B04D00A4ABB6823F04043136111
:101CD000012309E0064B1B6903F00103002B02D02E
:101CE000034B01221A61002318461037BD4680BD00
:101CF00000200240DC19002080B485B000AFF860FD
:101D0000C7E900230E4B5B690D4A43F001035361A1
:101D1000FB683A681A60BFF36F8F00BFD7E9000114
:101D20004FF000024FF000030A000023F96804316D
:101D300013460B6000BF1437BD465DF8047B704747
:101D40000020024080B489B000AF78603960402341
:101D5000FB777B68BB613B687B61144B5B69134A13
:101D600043F480235361EFF31083FB60FB683B6116
:101D700072B600BF7B691A68BB691A60BB6904331D
:101D8000BB617B6904337B61FB7F013BFB77FB7F9E
:101D9000002BEFD13B69BB60BB6883F3108800BFA9
:101DA00000BF2437BD465DF8047B70470020024029
:101DB00080B487B000AF7860396000237B617FE139
:101DC0003B681A6801217B6901FA03F31340FB6049
:101DD000FB68002B00F071813B685B68012B0BD026
:101DE0003B685B68022B07D03B685B68112B03D014
:101DF0003B685B68122B30D17B689B683B617B69D9
:101E00005B00032202FA03F3DB433A6913403B61B0
:101E10003B68DA687B695B0002FA03F33A691343B3
:101E20003B617B683A699A607B685B683B61012231
:101E30007B6902FA03F3DB433A6913403B613B6879
:101E40005B681B0903F001027B6902FA03F33A693C
:101E500013433B617B683A695A603B685B6803F0F7
:101E60000303032B18D17B68DB6A3B6101227B698A
:101E700002FA03F3DB433A6913403B613B685B685A
:101E8000DB0803F001027B6902FA03F33A691343AA
:101E90003B617B683A69DA627B68DB683B617B693E
:101EA0005B00032202FA03F3DB433A6913403B6110
:101EB0003B689A687B695B0002FA03F33A69134353
:101EC0003B617B683A69DA603B685B68022B03D050
:101ED0003B685B68122B23D17B69DA087B68083288
:101EE00053F822303B617B6903F007039B000F220C
:101EF00002FA03F3DB433A6913403B613B681A691A
:101F00007B6903F007039B0002FA03F33A6913436A
:101F10003B617B69DA087B680832396943F8221033
:101F20007B681B683B617B695B00032202FA03F359
:101F3000DB433A6913403B613B685B6803F0030293
:101F40007B695B0002FA03F33A6913433B617B68E8
:101F50003A691A603B685B6803F08053002B00F01D
:101F6000AC805F4B1B6E5E4A43F0010313665C4B13
:101F70001B6E03F00103BB60BB685A4A7B699B0878
:101F8000023352F823303B617B6903F003039B006B
:101F90000F2202FA03F3DB433A6913403B617B688B
:101FA000B3F1904F25D07B684F4A93421FD07B6896
:101FB0004E4A934219D07B684D4A934213D07B68B6
:101FC0004C4A93420DD07B684B4A934207D07B68C2
:101FD0004A4A934201D106230CE007230AE0052375
:101FE00008E0042306E0032304E0022302E00123C7
:101FF00000E000237A6902F00302920093403A69FC
:1020000013433B6137497B699B0802333A6941F8C6
:1020100023203B4B1B683B61FB68DB433A69134061
:102020003B613B685B6803F48033002B03D03A6963
:10203000FB6813433B61324A3B691360304B5B687A
:102040003B61FB68DB433A6913403B613B685B687B
:1020500003F40033002B03D03A69FB6813433B6160
:10206000274A3B695360264B9B683B61FB68DB4317
:102070003A6913403B613B685B6803F48013002BB3
:1020800003D03A69FB6813433B611D4A3B69936087
:102090001B4BDB683B61FB68DB433A6913403B61E8
:1020A0003B685B6803F40013002B03D03A69FB68BC
:1020B00013433B61124A3B69D3607B6901337B6107
:1020C0003B681A687B6922FA03F3002B7FF478AE31
:1020D00000BF00BF1C37BD465DF8047B704700BFE2
:1020E00000100240000001400004004800080048C1
:1020F000000C004800100048001400480018004878
:102100000004014080B487B000AF786039600023DC
:102110007B61CDE001227B6902FA03F33A68134048
:102120003B613B69002B00F0C080684A7B699B08DB
:10213000023352F82330FB607B6903F003039B00FA
:102140000F2202FA03F3FA681340FB607B68B3F1D5
:10215000904F25D07B685E4A93421FD07B685D4AD2
:10216000934219D07B685C4A934213D07B685B4AE8
:1021700093420DD07B685A4A934207D07B68594AF4
:10218000934201D106230CE007230AE0052308E06F
:10219000042306E0032304E0022302E0012300E01D
:1021A00000237A6902F0030292009340FA689A428F
:1021B00032D14D4B1A683B69DB434B4913400B60EE
:1021C000494B5A683B69DB43474913404B60464BD8
:1021D0009A683B69DB43444913408B60424BDA68A1
:1021E0003B69DB4340491340CB607B6903F0030349
:1021F0009B000F2202FA03F3FB60344A7B699B08C1
:10220000023352F82310FB68DA4330487B699B089D
:102210000A40023340F823207B681A687B695B0020
:10222000032101FA03F31A437B681A607B69DA0819
:102230007B68083253F822107B6903F007039B0088
:102240000F2202FA03F3DB437A69D20819407B6854
:10225000083243F822107B689A687B695B0003218F
:1022600001FA03F3DB431A407B689A607B685A6883
:1022700001217B6901FA03F3DB431A407B685A6052
:102280007B68DA687B695B00032101FA03F3DB43B7
:102290001A407B68DA607B68DA6A01217B6901FA9F
:1022A00003F3DB431A407B68DA627B6901337B61AD
:1022B0003A687B6922FA03F3002B7FF42BAF00BF4F
:1022C00000BF1C37BD465DF8047B7047000001402D
:1022D0000004004800080048000C004800100048B6
:1022E00000140048001800480004014080B485B084
:1022F00000AF78600B467B807B681A697B8813404F
:10230000002B02D00123FB7301E00023FB73FB7B56
:1023100018461437BD465DF8047B704780B483B01F
:1023200000AF78600B467B8013467B707B78002B78
:1023300003D07A887B689A6102E07A887B689A6227
:1023400000BF0C37BD465DF8047B704780B485B094
:1023500000AF78600B467B807B685B69FB607A88A6
:10236000FB6813401A04FB68D9437B880B401A436F
:102370007B689A6100BF1437BD465DF8047B7047E7
:1023800080B485B000AF78600B467B804FF480331B
:10239000FB607A88FB681343FB60FA687B68DA614C
:1023A0007A887B68DA61FA687B68DA617B68DB6966
:1023B000FB607B68DB6903F48033002B01D00023D2
:1023C00000E0012318461437BD465DF8047B7047D2
:1023D00080B582B000AF0346FB80084B5A69FB888A
:1023E0001340002B06D0054AFB885361FB88184632
:1023F00000F006F800BF0837BD4680BD000401406C
:1024000080B483B000AF0346FB8000BF0C37BD46ED
:102410005DF8047B704780B582B000AF78607B6860
:10242000002B01D1012340E07B689B6F002B06D17C
:102430007B68002283F874207868FEF729FE7B68A9
:1024400024229A677B681B681A687B681B6822F0E5
:1024500001021A60786801F059FC0346012B01D192
:10246000012322E07B685B6A002B02D0786801F0D0
:1024700007FF7B681B685A687B681B6822F49042E0
:102480005A607B681B689A687B681B6822F02A0286
:102490009A607B681B681A687B681B6842F00102BF
:1024A0001A60786801F08EFF034618460837BD466B
:1024B00080BD80B582B000AF78607B68002B01D111
:1024C000012348E07B689B6F002B06D17B680022CC
:1024D00083F874207868FEF7DBFD7B6824229A6716
:1024E0007B681B681A687B681B6822F001021A600F
:1024F000786801F00BFC0346012B01D101232AE08F
:102500007B685B6A002B02D0786801F0B9FE7B68BB
:102510001B685A687B681B6822F490425A607B688B
:102520001B689A687B681B6822F022029A607B68AD
:102530001B689A687B681B6842F008029A607B6897
:102540001B681A687B681B6842F001021A60786891
:1025500001F038FF034618460837BD4680BD80B5F8
:1025600082B000AF786039607B68002B01D1012315
:102570005FE07B68DB69B3F5004F01D1012358E0D0
:102580007B689B68002B01D0012352E07B689B6F26
:10259000002B06D17B68002283F874207868FEF750
:1025A00077FD7B6824229A677B681B681A687B68C2
:1025B0001B6822F001021A60786801F0A7FB03464D
:1025C000012B01D1012334E07B685B6A002B02D030
:1025D000786801F055FE7B681B685A687B681B6849
:1025E00022F400625A607B681B689A687B681B68EB
:1025F00022F02A029A607B681B685A687B681B6815
:1026000042F480425A607B681B685B6823F02001BB
:102610007B681B683A680A435A607B681B681A68C3
:102620007B681B6842F001021A60786801F0CAFEFC
:10263000034618460837BD4680BD80B584B000AF5C
:10264000F8600B467A60FB72FB68002B01D1012316
:1026500059E0FB689B6F002B06D1FB68002283F8D2
:102660007420F868FEF714FDFB6824229A67FB6863
:102670001B681A68FB681B6822F001021A60F86880
:1026800001F044FB0346012B01D101233BE0FB6831
:102690005B6A002B02D0F86801F0F2FDFB681B6852
:1026A0005A68FB681B6822F490425A60FB681B68FA
:1026B0009A68FB681B6822F02A029A607B68B3F56F
:1026C000006F0AD1FB681B685B6823F07F41FB7ACF
:1026D0001A06FB681B680A435A60FB681B681B6884
:1026E00023F40061FB681B687A680A431A60FB6880
:1026F0001B681A68FB681B6842F001021A60F868E0
:1027000001F060FE034618461037BD4680BD80B517
:1027100082B000AF78607B68002B01D101232BE0F1
:102720007B6824229A677B681B681A687B681B6831
:1027300022F001021A607B681B6800221A607B6825
:102740001B6800225A607B681B6800229A607868C8
:10275000FEF7F0FC7B680022C3F880207B68002233
:102760009A677B680022DA677B6800221A667B68BA
:10277000002283F87420002318460837BD4680BD28
:1027800080B483B000AF786000BF0C37BD465DF801
:10279000047B704780B483B000AF786000BF0C3713
:1027A000BD465DF8047B704780B58AB002AFF86023
:1027B000B9603B601346FB80FB689B6F202B40F0A9
:1027C0008280BB68002B02D0FB88002B01D1012343
:1027D0007AE0FB6893F87430012B01D1022373E097
:1027E000FB68012283F87420FB680022C3F8802074
:1027F000FB6821229A67FEF707FE7861FB68FA887A
:10280000A3F85020FB68FA88A3F85220FB689B6865
:10281000B3F5805F08D1FB681B69002B04D100234E
:10282000FB61BB68BB6103E0BB68FB610023BB616C
:10283000FB68002283F874202DE03B6800937B69DD
:1028400000228021F86801F006FE0346002B01D02B
:10285000032339E0FB69002B0BD1BB691A88FB68A5
:102860001B68C2F3080292B21A85BB690233BB61CE
:1028700008E0FB691A78FB681B6892B21A85FB694D
:102880000133FB61FB68B3F852309BB2013B9AB253
:10289000FB68A3F85220FB68B3F852309BB2002BC0
:1028A000CBD13B6800937B6900224021F86801F09E
:1028B000D2FD0346002B01D0032305E0FB68202254
:1028C0009A67002300E0022318462037BD4680BDEA
:1028D00080B58AB002AFF860B9603B601346FB80F8
:1028E000FB68DB6F202B40F0BF80BB68002B02D061
:1028F000FB88002B01D10123B7E0FB6893F874300B
:10290000012B01D10223B0E0FB68012283F874207F
:10291000FB680022C3F88020FB682222DA67FB688C
:1029200000221A66FEF770FD7861FB68FA88A3F84A
:102930005820FB68FA88A3F85A20FB689B68B3F517
:10294000805F0ED1FB681B69002B05D1FB6840F24C
:10295000FF12A3F85C202DE0FB68FF22A3F85C20A7
:1029600028E0FB689B68002B0DD1FB681B69002BDE
:1029700004D1FB68FF22A3F85C201BE0FB687F22E8
:10298000A3F85C2016E0FB689B68B3F1805F0DD173
:10299000FB681B69002B04D1FB687F22A3F85C2035
:1029A00008E0FB683F22A3F85C2003E0FB680022FC
:1029B000A3F85C20FB68B3F85C307B82FB689B6803
:1029C000B3F5805F08D1FB681B69002B04D100239D
:1029D000FB61BB68BB6103E0BB68FB610023BB61BB
:1029E000FB68002283F8742033E03B6800937B6926
:1029F00000222021F86801F02EFD0346002B01D0B3
:102A0000032332E0FB69002B0CD1FB681B689B8C15
:102A10009AB27B8A13409AB2BB691A80BB690233AF
:102A2000BB610DE0FB681B689B8C9BB2DAB27B8AB2
:102A3000DBB21340DAB2FB691A70FB690133FB6148
:102A4000FB68B3F85A309BB2013B9AB2FB68A3F81B
:102A50005A20FB68B3F85A309BB2002BC5D1FB68F3
:102A60002022DA67002300E0022318462037BD4603
:102A700080BD000080B485B000AFF860B960134637
:102A8000FB80FB689B6F202B45D1BB68002B02D0DD
:102A9000FB88002B01D101233EE0FB6893F87430E2
:102AA000012B01D1022337E0FB68012283F8742057
:102AB000FB68BA68DA64FB68FA88A3F85020FB6800
:102AC000FA88A3F85220FB6800229A66FB6800226D
:102AD000C3F88020FB6821229A67FB689B68B3F5E6
:102AE000805F07D1FB681B69002B03D1FB680D4A8F
:102AF0009A6602E0FB680C4A9A66FB68002283F83B
:102B00007420FB681B681A68FB681B6842F080022F
:102B10001A60002300E0022318461437BD465DF812
:102B2000047B70477B4B0008074B000880B584B0DE
:102B300000AFF860B9601346FB80FB68DB6F202BA9
:102B400031D1BB68002B02D0FB88002B01D10123BF
:102B50002AE0FB6893F87430012B01D1022323E0B3
:102B6000FB68012283F87420FB6800221A66FB6868
:102B70001B680F4A93420ED0FB681B685B6803F426
:102B80000003002B07D0FB681B681A68FB681B68F2
:102B900042F080621A60FB881A46B968F86801F052
:102BA000D7FC034600E0022318461037BD4680BD1F
:102BB0000080004080B584B000AFF860B960134673
:102BC000FB80FB689B6F202B66D1BB68002B02D07B
:102BD000FB88002B01D101235FE0FB6893F8743080
:102BE000012B01D1022358E0FB68012283F87420F5
:102BF000FB68BA68DA64FB68FA88A3F85020FB68BF
:102C0000FA88A3F85220FB680022C3F88020FB68F2
:102C100021229A67FB68DB6E002B2BD0FB68DB6EF2
:102C2000204ADA62FB68DB6E1F4A1A63FB68DB6EC0
:102C30001E4A5A63FB68DB6E00229A63FB68D86EFB
:102C4000FB68DB6C1946FB681B6828331A46FB8857
:102C500004F0FDF80346002B0CD0FB681022C3F8EB
:102C60008020FB68002283F87420FB6820229A678A
:102C7000012312E0FB681B6840221A62FB680022F5
:102C800083F87420FB681B689A68FB681B6842F035
:102C900080029A60002300E0022318461037BD46E8
:102CA00080BD00BFC1470008154800080149000861
:102CB00080B584B000AFF860B9601346FB80FB6854
:102CC000DB6F202B31D1BB68002B02D0FB88002B9F
:102CD00001D101232AE0FB6893F87430012B01D164
:102CE000022323E0FB68012283F87420FB680022A2
:102CF0001A66FB681B680F4A93420ED0FB681B687C
:102D00005B6803F40003002B07D0FB681B681A689C
:102D1000FB681B6842F080621A60FB881A46B9683B
:102D2000F86801F09DFC034600E0022318461037C6
:102D3000BD4680BD0080004080B485B000AF7860A3
:102D40007B689B6FFB607B68DB6FBB607B6893F885
:102D50007430012B01D102233CE07B68012283F80F
:102D600074207B681B689B6803F08003802B0AD16A
:102D7000FB68212B07D17B681B689A687B681B68FE
:102D800022F080029A607B681B689B6803F0400316
:102D9000402B1AD1BB68222B17D17B681B681A689D
:102DA0007B681B6822F480721A607B681B689A68D3
:102DB0007B681B6822F001029A607B681B689A6836
:102DC0007B681B6822F040029A607B68002283F8CF
:102DD0007420002318461437BD465DF8047B704705
:102DE00080B483B000AF78607B6893F87430012BB7
:102DF00001D1022334E07B68012283F874207B68D0
:102E00009B6F212B07D17B681B689A687B681B68C6
:102E100042F080029A607B68DB6F222B1BD17B68BB
:102E20001B6808221A627B681B681A687B681B682B
:102E300042F480721A607B681B689A687B681B6822
:102E400042F001029A607B681B689A687B681B6885
:102E500042F040029A607B68002283F874200023CD
:102E600018460C37BD465DF8047B704780B584B0CA
:102E700000AF78607B689B6FFB607B68DB6FBB603B
:102E80007B681B689B6803F08003802B27D1FB685D
:102E9000212B24D17B681B689A687B681B6822F011
:102EA00080029A607B68DB6E002B15D07B68DB6E3E
:102EB000184604F02CF80346002B0DD07B68DB6E1F
:102EC000184604F0A7FA0346202B05D17B68102290
:102ED000C3F88020032332E0786801F02DFC7B6882
:102EE0001B689B6803F04003402B27D1BB68222B53
:102EF00024D17B681B689A687B681B6822F04002BB
:102F00009A607B681B6F002B15D07B681B6F18467F
:102F100003F0FDFF0346002B0DD07B681B6F1846A6
:102F200004F078FA0346202B05D17B681022C3F801
:102F30008020032303E0786801F013FC0023184687
:102F40001037BD4680BD80B582B000AF78607B6829
:102F50001B681A687B681B6822F4F0721A607B6831
:102F60001B689A687B681B6822F001029A607B6884
:102F70001B6E012B07D17B681B681A687B681B6876
:102F800022F010021A607B681B689B6803F08003C4
:102F9000802B25D17B681B689A687B681B6822F0B0
:102FA00080029A607B68DB6E002B19D07B68DB6E39
:102FB00000229A637B68DB6E184603F0A8FF034685
:102FC000002B0DD07B68DB6E184604F023FA034615
:102FD000202B05D17B681022C3F88020032350E00A
:102FE0007B681B689B6803F04003402B25D17B68FE
:102FF0001B689A687B681B6822F040029A607B68B5
:103000001B6F002B19D07B681B6F00229A637B68B3
:103010001B6F184603F07BFF0346002B0DD07B6827
:103020001B6F184604F0F6F90346202B05D17B6888
:103030001022C3F88020032323E07B680022A3F83A
:1030400052207B680022A3F85A207B681B680F225D
:103050001A627B681B681B8B9AB27B681B6842F004
:10306000080292B21A837B6820229A677B6820222A
:10307000DA677B6800221A667B680022C3F880202A
:10308000002318460837BD4680BD80B582B000AF2A
:1030900078607B681B681A687B681B6822F0C00236
:1030A0001A607B681B689B6803F08003802B25D126
:1030B0007B681B689A687B681B6822F080029A60B4
:1030C0007B68DB6E002B19D07B68DB6E00229A6375
:1030D0007B68DB6E184603F01AFF0346002B0DD009
:1030E0007B68DB6E184604F095F90346202B05D16A
:1030F0007B681022C3F88020032307E07B6800224E
:10310000A3F852207B6820229A67002318460837CC
:10311000BD4680BD80B582B000AF78607B681B681B
:103120001A687B681B6822F490721A607B681B68BF
:103130009A687B681B6822F001029A607B681B6EAC
:10314000012B07D17B681B681A687B681B6822F01B
:1031500010021A607B681B689B6803F04003402BD9
:1031600025D17B681B689A687B681B6822F0400247
:103170009A607B681B6F002B19D07B681B6F002245
:103180009A637B681B6F184603F0C1FE0346002B51
:103190000DD07B681B6F184604F03CF90346202BCA
:1031A00005D17B681022C3F88020032318E07B68D8
:1031B0000022A3F85A207B681B680F221A627B68E2
:1031C0001B681B8B9AB27B681B6842F0080292B2A4
:1031D0001A837B682022DA677B6800221A66002344
:1031E00018460837BD4680BD80B584B000AF786012
:1031F0000123FB607B681B681A687B681B6822F4EC
:10320000F0721A607B681B689A687B681B6822F002
:1032100001029A607B681B6E012B07D17B681B68DB
:103220001A687B681B6822F010021A607B68DB6EEC
:10323000002B0FD07B681B689B6803F08003802BFA
:1032400004D17B68DB6E4A4A9A6303E07B68DB6EDD
:1032500000229A637B681B6F002B0FD07B681B6872
:103260009B6803F04003402B04D17B681B6F414AED
:103270009A6303E07B681B6F00229A637B681B687C
:103280009B6803F08003802B1AD17B681B689A68C7
:103290007B681B6822F080029A607B68DB6E002BE3
:1032A0000ED07B68DB6E184603F06FFE0346002BE2
:1032B00004D07B68DB6E00229A6301E00023FB6090
:1032C0007B681B689B6803F04003402B1CD17B6824
:1032D0001B689A687B681B6822F040029A607B68D2
:1032E0001B6F002B10D07B681B6F184603F04DFE40
:1032F0000346002B06D07B681B6F00229A630123D4
:10330000FB6001E00023FB60FB68012B2BD17B6895
:103310000022A3F852207B680022A3F85A207B6881
:1033200000225A667B6800229A667B680022C3F8F6
:1033300080207B681B680F221A627B681B681B8BCE
:103340009AB27B681B6842F0080292B21A837B68CB
:1033500020229A677B682022DA677B6800221A663F
:10336000786800F015FB002318461037BD4680BD75
:10337000A9490008134A000880B582B000AF786000
:103380007B681B681A687B681B6822F0C0021A60A1
:103390007B681B689B6803F08003802B2DD17B68C2
:1033A0001B689A687B681B6822F080029A607B68C1
:1033B000DB6E002B13D07B68DB6E194A9A637B6847
:1033C000DB6E184603F0E1FD0346002B22D07B683C
:1033D000DB6E9B6B7A68D26E104698471AE07B686A
:1033E0000022A3F852207B6800229A667B68202284
:1033F0009A67786800F0D6FA0CE07B680022A3F8A0
:1034000052207B6800229A667B6820229A6778683F
:1034100000F0C8FA002318460837BD4680BD00BF3B
:10342000914A000880B582B000AF78607B681B6865
:103430001A687B681B6822F490721A607B681B68AC
:103440009A687B681B6822F001029A607B681B6E99
:10345000012B07D17B681B681A687B681B6822F008
:1034600010021A607B681B689B6803F04003402BC6
:103470003ED17B681B689A687B681B6822F040021B
:103480009A607B681B6F002B13D07B681B6F254AEB
:103490009A637B681B6F184603F077FD0346002B89
:1034A0003AD07B681B6F9B6B7A68126F1046984707
:1034B00032E07B680022A3F85A207B6800225A651C
:1034C0007B681B680F221A627B681B681B8B9AB291
:1034D0007B681B6842F0080292B21A837B68202244
:1034E000DA677B6800221A66786800F065FA13E0F4
:1034F0007B680022A3F85A207B6800225A657B680B
:103500001B680F221A627B682022DA677B68002220
:103510001A66786800F050FA002318460837BD464E
:1035200080BD00BFBB4A000880B588B000AF78609E
:103530007B681B68DB69FB617B681B681B68BB6180
:103540007B681B689B687B61FA6940F60F03134038
:103550003B613B69002B13D1FB6903F02003002B77
:103560000ED0BB6903F02003002B09D07B685B6E93
:10357000002B00F0CF817B685B6E78689847C9E1CB
:103580003B69002B00F0E8807B6903F00103002B0E
:1035900005D1BA696E4B1340002B00F0DD80FB694A
:1035A00003F00103002B10D0BB6903F48073002BE0
:1035B0000BD07B681B6801221A627B68D3F88030CD
:1035C00043F001027B68C3F88020FB6903F002032B
:1035D000002B10D07B6903F00103002B0BD07B681C
:1035E0001B6802221A627B68D3F8803043F0040221
:1035F0007B68C3F88020FB6903F00403002B10D024
:103600007B6903F00103002B0BD07B681B6804224D
:103610001A627B68D3F8803043F002027B68C3F8FB
:103620008020FB6903F00803002B15D0BB6903F071
:103630002003002B04D17B6903F00103002B0BD086
:103640007B681B6808221A627B68D3F8803043F0DD
:1036500008027B68C3F88020FB6903F40063002B39
:1036600011D0BB6903F08063002B0CD07B681B6812
:103670004FF400621A627B68D3F8803043F0200276
:103680007B68C3F880207B68D3F88030002B00F083
:103690004381FB6903F02003002B0CD0BB6903F0CE
:1036A0002003002B07D07B685B6E002B03D07B6868
:1036B0005B6E786898477B68D3F88030FB607B68E6
:1036C0001B689B6803F04003402B04D0FB6803F0A9
:1036D0002803002B31D0786801F043F87B681B6821
:1036E0009B6803F04003402B23D17B681B689A68DA
:1036F0007B681B6822F040029A607B681B6F002B7E
:1037000013D07B681B6F134A9A637B681B6F184644
:1037100003F03BFC0346002B17D07B681B6F9B6BB1
:103720007A68126F104698470FE0786800F026F923
:103730000BE0786800F022F907E0786800F01EF9E5
:103740007B680022C3F88020E6E000BFE4E000BF11
:10375000200100047D4900087B681B6E012B40F0AE
:10376000A580FB6903F01003002B00F09F80BB696C
:1037700003F01003002B00F099807B681B68102277
:103780001A627B681B689B6803F04003402B54D18E
:103790007B681B6F1B685B683B813B89002B00F0DB
:1037A000BD807B68B3F858303A899A4280F0B68081
:1037B0007B683A89A3F85A207B681B6F1B681B68DB
:1037C00003F02003002B2AD17B681B681A687B68F2
:1037D0001B6822F480721A607B681B689A687B6899
:1037E0001B6822F001029A607B681B689A687B68FC
:1037F0001B6822F040029A607B682022DA677B68AF
:1038000000221A667B681B681A687B681B6822F0B6
:1038100010021A607B681B6F184603F078FB7B6808
:10382000B3F858207B68B3F85A309BB2D31A9BB2D6
:103830001946786800F0CAF870E07B68B3F8582041
:103840007B68B3F85A309BB2D31A7B817B68B3F89C
:103850005A309BB2002B63D07B89002B60D07B68F1
:103860001B681A687B681B6822F490721A607B6878
:103870001B689A687B681B6822F001029A607B686B
:103880002022DA677B6800221A667B6800225A666B
:103890007B681B681A687B681B6822F010021A603C
:1038A0007B891946786800F091F839E0FB6903F4E8
:1038B0008013002B0DD07B6903F48003002B08D00C
:1038C0007B681B684FF480121A62786805F045FB2C
:1038D00029E0FB6903F08003002B0DD0BB6903F0E6
:1038E0008003002B08D07B689B6E002B1AD07B686E
:1038F0009B6E7868984715E0FB6903F04003002B46
:1039000011D0BB6903F04003002B0CD0786801F0A4
:1039100072F908E000BF06E000BF04E000BF02E06B
:1039200000BF00E000BF2037BD4680BD80B483B03B
:1039300000AF786000BF0C37BD465DF8047B704770
:1039400080B483B000AF786000BF0C37BD465DF82F
:10395000047B704780B483B000AF786000BF0C3741
:10396000BD465DF8047B704780B483B000AF7860DB
:1039700000BF0C37BD465DF8047B704780B483B050
:1039800000AF786000BF0C37BD465DF8047B704720
:1039900080B483B000AF786000BF0C37BD465DF8DF
:1039A000047B704780B483B000AF786000BF0C37F1
:1039B000BD465DF8047B704780B483B000AF78608B
:1039C00000BF0C37BD465DF8047B704780B483B000
:1039D00000AF78600B467B8000BF0C37BD465DF8BA
:1039E000047B704780B483B000AF786039607B6837
:1039F0001B68094A934209D07B681B685B6903F026
:103A00007F417B681B683A680A435A6100BF0C37E4
:103A1000BD465DF8047B70470080004080B483B0F1
:103A200000AF78607B681B68174A934224D07B689C
:103A30009B6F202B1ED17B6893F87430012B01D132
:103A400002231AE07B68012283F874207B68242219
:103A50009A677B681B685A687B681B6842F400029F
:103A60005A607B6820229A677B68002283F8742062
:103A7000002302E0022300E0012318460C37BD4674
:103A80005DF8047B704700BF0080004080B483B0C5
:103A900000AF78607B681B68174A934224D07B682C
:103AA0009B6F202B1ED17B6893F87430012B01D1C2
:103AB00002231AE07B68012283F874207B682422A9
:103AC0009A677B681B685A687B681B6822F400024F
:103AD0005A607B6820229A677B68002283F87420F2
:103AE000002302E0022300E0012318460C37BD4604
:103AF0005DF8047B704700BF0080004080B582B055
:103B000000AF78607B6893F87430012B01D10223F9
:103B100015E07B68012283F874207B6824229A6771
:103B20007B681B681A687B681B6842F400521A6045
:103B30007B6820229A67786800F044FC03461846A8
:103B40000837BD4680BD80B582B000AF78607B6825
:103B500093F87430012B01D1022315E07B68012218
:103B600083F874207B6824229A677B681B681A6834
:103B70007B681B6822F400521A607B6820229A67D7
:103B8000786800F01FFC034618460837BD4680BD24
:103B900080B483B000AF78607B681B681B8B9AB2DF
:103BA0007B681B6842F0040292B21A8300BF0C3794
:103BB000BD465DF8047B704780B483B000AF786089
:103BC0007B6893F87430012B01D102231EE07B68DF
:103BD000012283F874207B6824229A677B681B6823
:103BE0001A687B681B6822F00C021A607B681B68ED
:103BF0001A687B681B6842F008021A607B68202202
:103C00009A677B68002283F87420002318460C37DB
:103C1000BD465DF8047B704780B483B000AF786028
:103C20007B6893F87430012B01D102231EE07B687E
:103C3000012283F874207B6824229A677B681B68C2
:103C40001A687B681B6822F00C021A607B681B688C
:103C50001A687B681B6842F004021A607B682022A5
:103C60009A677B68002283F87420002318460C377B
:103C7000BD465DF8047B704780B483B000AF7860C8
:103C80007B6893F87430012B01D1022318E07B6824
:103C9000012283F874207B6824229A677B681B6862
:103CA0001B8B9AB27B681B6842F0020292B21A83A5
:103CB0007B6820229A677B68002283F874200023A7
:103CC00018460C37BD465DF8047B704780B485B05C
:103CD00000AF78607B689B6FFB607B68DB6FBB60CD
:103CE000FA68BB68134318461437BD465DF8047B79
:103CF000704780B483B000AF78607B68D3F88030C1
:103D000018460C37BD465DF8047B70472DE9B04F6F
:103D10008AB000AFF860002387F82230FB689A6809
:103D2000FB681B691A43FB685B691A43FB68DB6924
:103D300013437B62FB681B681A68A44B1340FA6844
:103D40001268796A0B431360FB681B685B6823F495
:103D50004051FB68DA68FB681B680A435A60FB68DD
:103D60009B697B62FB681B68994A934204D0FB689D
:103D70001B6A7A6A13437B62FB681B689B6823F4A7
:103D80003061FB681B687A6A0A439A60FB681B68AB
:103D9000904A934226D1904BD3F8883003F0030326
:103DA000032B1BD801A252F823F000BFBD3D000831
:103DB000CD3D0008C53D0008D53D0008012387F82A
:103DC000233016E1022387F8233012E1042387F819
:103DD00023300EE1082387F823300AE1102387F807
:103DE000233006E1FB681B687C4A934238D17A4B4A
:103DF000D3F8883003F00C030C2B2DD801A252F815
:103E000023F000BF393E0008593E0008593E000823
:103E1000593E0008493E0008593E0008593E000836
:103E2000593E0008413E0008593E0008593E00082E
:103E3000593E0008513E0008002387F82330D8E09F
:103E4000022387F82330D4E0042387F82330D0E01E
:103E5000082387F82330CCE0102387F82330C8E00C
:103E6000FB681B685E4A934225D15B4BD3F88830D0
:103E700003F03003302B16D0302B18D8202B0AD06B
:103E8000202B14D8002B02D0102B08D00FE00023D9
:103E900087F82330ADE0022387F82330A9E004231C
:103EA00087F82330A5E0082387F82330A1E010230A
:103EB00087F823309DE0FB681B684A4A934225D16E
:103EC000454BD3F8883003F0C003C02B16D0C02B6D
:103ED00018D8802B0AD0802B14D8002B02D0402B6E
:103EE00008D00FE0002387F8233082E0022387F810
:103EF00023307EE0042387F823307AE0082387F814
:103F0000233076E0102387F8233072E0FB681B68CB
:103F1000354A93422AD1304BD3F8883003F44073AA
:103F2000B3F5407F1AD0B3F5407F1BD8B3F5007FBF
:103F30000CD0B3F5007F15D8002B03D0B3F5807FEC
:103F400008D00FE0002387F8233052E0022387F8DF
:103F500023304EE0042387F823304AE0082387F813
:103F6000233046E0102387F8233042E0FB681B68CB
:103F7000174A93423AD1184BD3F8883003F4406380
:103F8000B3F5406F1AD0B3F5406F1BD8B3F5006F8F
:103F90000CD0B3F5006F15D8002B03D0B3F5806FAC
:103FA00008D00FE0002387F8233022E0022387F8AF
:103FB00023301EE0042387F823301AE0082387F813
:103FC000233016E0102387F8233012E0F369FFEF67
:103FD00000800040003801400010024000440040D2
:103FE00000480040004C004000500040102387F87B
:103FF0002330FB681B68A04A93427AD197F823309C
:10400000082B24D801A252F823F000BF3140000849
:104010004F400008394000084F4000083F4000086A
:104020004F4000084F4000084F400008474000083C
:1040300006F036FAF86110E0904BFB610DE006F0F7
:1040400097F9F86109E04FF40043FB6105E00023B4
:10405000FB61012387F8223000BFFB69002B00F0D1
:10406000FD80FB685A6813465B001344FA699A4264
:1040700005D3FB685B681B03FA699A4203D90123E5
:1040800087F82230EAE0FB6900221C4615464FF013
:1040900000024FF000032B0243EA14632202F96886
:1040A0004968490800208846814612EB080A43EB1C
:1040B000090BFB685B6800223B607A60D7E900234C
:1040C00050465946FCF7CCF802460B461346BB61F6
:1040D000BB69B3F5407F08D3BB69B3F5801F04D239
:1040E000FB681B68BA69DA60B8E0012387F8223000
:1040F000B4E0FB68DB69B3F5004F5FD197F823307C
:10410000082B28D801A252F823F000BF3141000843
:104110003941000841410008574100084741000863
:104120005741000857410008574100084F41000817
:1041300006F0B6F9F86114E006F0C8F9F86110E08D
:104140004E4BFB610DE006F013F9F86109E04FF406
:104150000043FB6105E00023FB61012387F8223067
:1041600000BFFB69002B79D0FB695A00FB685B68D4
:104170005B081A44FB685B68B2FBF3F39BB2BB615C
:10418000BB690F2B16D9BB69B3F5803F12D2BB694F
:104190009BB223F00F03FB82BB695B089BB203F069
:1041A00007039AB2FB8A1343FB82FB681B68FA8AF7
:1041B000DA6053E0012387F822304FE097F823308C
:1041C000082B28D801A252F823F000BFF1410008C3
:1041D000F9410008014200081742000807420008A0
:1041E0001742000817420008174200080F42000853
:1041F00006F056F9F86114E006F068F9F86110E08D
:104200001E4BFB610DE006F0B3F8F86109E04FF4D6
:104210000043FB6105E00023FB61012387F82230A6
:1042200000BFFB69002B19D0FB685B685A08FB696B
:104230001A44FB685B68B2FBF3F39BB2BB61BB69DA
:104240000F2B08D9BB69B3F5803F04D2FB681B680C
:10425000BA69DA6002E0012387F82230FB680022A5
:104260005A66FB6800229A6697F82230184628376B
:10427000BD46BDE8B08F00BF008000400024F400C0
:1042800080B483B000AF78607B685B6A03F00103A1
:10429000002B0AD07B681B685B6823F400317B68C5
:1042A0009A6A7B681B680A435A607B685B6A03F002
:1042B0000203002B0AD07B681B685B6823F4803103
:1042C0007B68DA6A7B681B680A435A607B685B6AB2
:1042D00003F00403002B0AD07B681B685B6823F49F
:1042E00080217B681A6B7B681B680A435A607B6875
:1042F0005B6A03F00803002B0AD07B681B685B68CD
:1043000023F400417B685A6B7B681B680A435A6040
:104310007B685B6A03F01003002B0AD07B681B6884
:104320009B6823F480517B689A6B7B681B680A4307
:104330009A607B685B6A03F02003002B0AD07B68DD
:104340001B689B6823F400517B68DA6B7B681B68F1
:104350000A439A607B685B6A03F04003002B1AD023
:104360007B681B685B6823F480117B681A6C7B6830
:104370001B680A435A607B681B6CB3F5801F0AD127
:104380007B681B685B6823F4C0017B685A6C7B68A0
:104390001B680A435A607B685B6A03F08003002B4A
:1043A0000AD07B681B685B6823F400217B689A6CE9
:1043B0007B681B680A435A6000BF0C37BD465DF836
:1043C000047B704780B586B002AF78607B680022BE
:1043D000C3F88020FDF718F8F8607B681B681B683D
:1043E00003F00803082B0ED16FF07E430093FB68A7
:1043F00000224FF40011786800F02DF80346002BDE
:1044000001D0032323E07B681B681B6803F00403CF
:10441000042B0ED16FF07E430093FB6800224FF413
:104420008001786800F017F80346002B01D00323C1
:104430000DE07B6820229A677B682022DA677B6820
:1044400000221A667B68002283F874200023184635
:104450001037BD4680BD80B584B000AFF860B9604C
:104460003B601346FB715EE0BB69B3F1FF3F5AD07E
:10447000FCF7CAFF02463B68D31ABA699A4202D3D4
:10448000BB69002B1BD1FB681B681A68FB681B68A3
:1044900022F4D0721A60FB681B689A68FB681B687C
:1044A00022F001029A60FB6820229A67FB682022B2
:1044B000DA67FB68002283F87420032343E0FB687B
:1044C0001B681B6803F00403002B2CD0FB681B68DF
:1044D000DB6903F40063B3F5006F24D1FB681B684C
:1044E0004FF400621A62FB681B681A68FB681B685D
:1044F00022F4D0721A60FB681B689A68FB681B681C
:1045000022F001029A60FB6820229A67FB68202251
:10451000DA67FB682022C3F88020FB68002283F85A
:10452000742003230FE0FB681B68DA69BB68134043
:10453000BA689A420CBF01230023DBB21A46FB790A
:104540009A4291D0002318461037BD4680BD000026
:1045500080B485B000AFF860B9601346FB80FB689B
:10456000BA685A65FB68FA88A3F85820FB68FA888D
:10457000A3F85A20FB6800225A66FB689B68B3F5D3
:10458000805F0ED1FB681B69002B05D1FB6840F2F0
:10459000FF12A3F85C202DE0FB68FF22A3F85C204B
:1045A00028E0FB689B68002B0DD1FB681B69002B82
:1045B00004D1FB68FF22A3F85C201BE0FB687F228C
:1045C000A3F85C2016E0FB689B68B3F1805F0DD117
:1045D000FB681B69002B04D1FB687F22A3F85C20D9
:1045E00008E0FB683F22A3F85C2003E0FB680022A0
:1045F000A3F85C20FB680022C3F88020FB6822221D
:10460000DA67FB681B689A68FB681B6842F0010266
:104610009A60FB689B68B3F5805F07D1FB681B69F4
:10462000002B03D1FB680C4A5A6602E0FB680B4A78
:104630005A66FB68002283F87420FB681B681A68BE
:10464000FB681B6842F490721A6000231846143706
:10465000BD465DF8047B7047014D0008294C0008F9
:1046600080B584B000AFF860B9601346FB80FB688A
:10467000BA685A65FB68FA88A3F85820FB680022DC
:10468000C3F88020FB682222DA67FB681B6F002BCF
:104690002BD0FB681B6F254ADA62FB681B6F244A2C
:1046A0001A63FB681B6F234A5A63FB681B6F002267
:1046B0009A63FB68186FFB681B6824331946FB6814
:1046C0005B6D1A46FB8802F0C2FB0346002B0CD040
:1046D000FB681022C3F88020FB68002283F8742056
:1046E000FB6820229A6701231CE0FB68002283F804
:1046F0007420FB681B681A68FB681B6842F48072B0
:104700001A60FB681B689A68FB681B6842F001022C
:104710009A60FB681B689A68FB681B6842F040025D
:104720009A60002318461037BD4680BD3148000806
:10473000C94800080149000880B483B000AF786020
:104740007B681B681A687B681B6822F0C0021A60CD
:104750007B6820229A6700BF0C37BD465DF8047B5A
:10476000704780B483B000AF78607B681B681A68BC
:104770007B681B6822F490721A607B681B689A68D9
:104780007B681B6822F001029A607B681B6E012B1C
:1047900007D17B681B681A687B681B6822F01002CF
:1047A0001A607B682022DA677B6800221A667B68C1
:1047B00000225A6600BF0C37BD465DF8047B704787
:1047C00080B584B000AF78607B689B6AFB607B68D3
:1047D0001B681B6803F02003002B14D1FB68002228
:1047E000A3F85220FB681B689A68FB681B6822F0DC
:1047F00080029A60FB681B681A68FB681B6842F0BD
:1048000040021A6002E0F868FFF790F800BF103726
:10481000BD4680BD80B584B000AF78607B689B6A80
:10482000FB60F868FFF78CF800BF1037BD4680BD0D
:1048300080B584B000AF78607B689B6AFB607B6862
:104840001B681B6803F02003002B2AD1FB680022A1
:10485000A3F85A20FB681B681A68FB681B6822F4DF
:1048600080721A60FB681B689A68FB681B6822F0FC
:1048700001029A60FB681B689A68FB681B6822F05B
:1048800040029A60FB682022DA67FB681B6E012BEE
:1048900007D1FB681B681A68FB681B6822F01002CE
:1048A0001A60FB681B6E012B07D1FB68B3F8583008
:1048B0001946F868FFF78AF802E0F868FFF74AF847
:1048C00000BF1037BD4680BD80B584B000AF7860B2
:1048D0007B689B6AFB60FB681B6E012B09D1FB6840
:1048E000B3F858305B089BB21946F868FFF76EF8CA
:1048F00002E0F868FFF738F800BF1037BD4680BD0A
:1049000080B586B000AF78607B689B6A7B617B690D
:104910009B6F3B617B69DB6FFB607B691B689B68FE
:1049200003F08003802B09D13B69212B06D17B69E1
:104930000022A3F852207869FFF7FEFE7B691B680E
:104940009B6803F04003402B09D1FB68222B06D162
:104950007B690022A3F85A207869FFF702FF7B6980
:10496000D3F8803043F010027B69C3F88020786967
:10497000FFF704F800BF1837BD4680BD80B584B08E
:1049800000AF78607B689B6AFB60FB680022A3F83D
:104990005A20FB680022A3F85220F868FEF7EEFFC9
:1049A00000BF1037BD4680BD80B584B000AF7860D1
:1049B0007B689B6AFB60FB68DB6E00229A63FB6886
:1049C0001B6F002B04D0FB681B6F9B6B002B1CD153
:1049D000FB680022A3F85220FB680022A3F85A20AB
:1049E000FB680022C3F88020FB681B680F221A6254
:1049F000FB6820229A67FB682022DA67FB680022A6
:104A00001A66F868FEF7C4FF00E000BF1037BD4625
:104A100080BD80B584B000AF78607B689B6AFB6026
:104A2000FB681B6F00229A63FB68DB6E002B04D0CF
:104A3000FB68DB6E9B6B002B26D1FB680022A3F882
:104A40005220FB680022A3F85A20FB680022C3F81A
:104A50008020FB681B680F221A62FB681B681B8B97
:104A60009AB2FB681B6842F0080292B21A83FB6894
:104A700020229A67FB682022DA67FB6800221A6608
:104A8000F868FEF785FF00E000BF1037BD4680BD27
:104A900080B584B000AF78607B689B6AFB60FB6880
:104AA0000022A3F85220FB6820229A67F868FEF7DC
:104AB00079FF00BF1037BD4680BD80B584B000AF20
:104AC00078607B689B6AFB60FB680022A3F85A2031
:104AD000FB681B680F221A62FB681B681B8B9AB26B
:104AE000FB681B6842F0080292B21A83FB6820221E
:104AF000DA67FB6800221A66F868FEF75DFF00BF00
:104B00001037BD4680BD80B483B000AF78607B684D
:104B10009B6F212B2BD17B68B3F852309BB2002BBB
:104B200010D17B681B681A687B681B6822F08002C2
:104B30001A607B681B681A687B681B6842F0400239
:104B40001A6014E07B68DB6C1A787B681B6892B291
:104B50001A857B68DB6C5A1C7B68DA647B68B3F867
:104B600052309BB2013B9AB27B68A3F8522000BF3F
:104B70000C37BD465DF8047B704780B485B000AF4C
:104B800078607B689B6F212B2FD17B68B3F8523004
:104B90009BB2002B10D17B681B681A687B681B686E
:104BA00022F080021A607B681B681A687B681B68A9
:104BB00042F040021A6018E07B68DB6CFB60FB6827
:104BC0001A887B681B68C2F3080292B21A857B6858
:104BD000DB6C9A1C7B68DA647B68B3F852309BB25A
:104BE000013B9AB27B68A3F8522000BF1437BD4640
:104BF0005DF8047B704780B582B000AF78607B6859
:104C00001B681A687B681B6822F040021A607B6888
:104C100020229A677B6800229A667868FEF786FEF3
:104C200000BF0837BD4680BD80B584B000AF786056
:104C30007B68B3F85C30FB817B68DB6F222B51D142
:104C40007B681B689B8CBB81BB89D9B2FB89DAB2BC
:104C50007B685B6D0A40D2B21A707B685B6D5A1C30
:104C60007B685A657B68B3F85A309BB2013B9AB2B5
:104C70007B68A3F85A207B68B3F85A309BB2002BAC
:104C80003AD17B681B681A687B681B6822F49072B3
:104C90001A607B681B689A687B681B6822F00102B7
:104CA0009A607B682022DA677B6800225A667B68FC
:104CB0001B6E012B0FD17B681B681A687B681B6811
:104CC00022F010021A607B68B3F8583019467868F1
:104CD000FEF77CFE02E07868FEF73CFE7B6800226F
:104CE0001A6609E07B681B681B8B9AB27B681B689D
:104CF00042F0080292B21A8300BF1037BD4680BD51
:104D000080B584B000AF78607B68B3F85C30FB811D
:104D10007B68DB6F222B51D17B681B689B8CBB812E
:104D20007B685B6DBB60BA89FB8913409AB2BB6834
:104D30001A807B685B6D9A1C7B685A657B68B3F848
:104D40005A309BB2013B9AB27B68A3F85A207B6829
:104D5000B3F85A309BB2002B3AD17B681B681A68B3
:104D60007B681B6822F490721A607B681B689A68E3
:104D70007B681B6822F001029A607B682022DA6758
:104D80007B6800225A667B681B6E012B0FD17B6803
:104D90001B681A687B681B6822F010021A607B6827
:104DA000B3F8583019467868FEF710FE02E07868CC
:104DB000FEF7D0FD7B6800221A6609E07B681B685D
:104DC0001B8B9AB27B681B6842F0080292B21A836E
:104DD00000BF1037BD4680BD80B586B000AF78609B
:104DE0000023FB740023BB747B681B6803F400631F
:104DF000002B41D07B685B6EB3F5400F2AD0B3F532
:104E0000400F24D8B3F5000F08D0B3F5000F1ED81B
:104E1000002B0AD0B3F5800F10D018E0864BDB686A
:104E2000854A43F48033D36015E07B680433002166
:104E3000184601F0BDFB0346FB740CE07B68203391
:104E40000021184601F0A8FC0346FB7403E001238F
:104E5000FB7400E000BFFB7C002B0BD1764BD3F83A
:104E6000883023F440027B685B6E73491343C1F8BA
:104E7000883001E0FB7CBB747B681B6803F48053C3
:104E8000002B41D07B689B6EB3F1407F2AD0B3F1F9
:104E9000407F24D8B3F1007F08D0B3F1007F1ED843
:104EA000002B0AD0B3F1807F10D018E0624BDB6892
:104EB000614A43F48033D36015E07B6804330021FA
:104EC000184601F075FB0346FB740CE07B68203349
:104ED0000021184601F060FC0346FB7403E0012347
:104EE000FB7400E000BFFB7C002B0BD1524BD3F8CE
:104EF000883023F040727B689B6E4F491343C1F8A2
:104F0000883001E0FB7CBB747B681B6803F40033D2
:104F1000002B00F0A08000237B74474B9B6D03F0B7
:104F20008053002B01D1012300E00023002B0DD082
:104F3000414B9B6D404A43F0805393653E4B9B6DC4
:104F400003F08053BB60BB6801237B743B4B1B6841
:104F50003A4A43F480731360FCF756FAF86009E0AC
:104F6000FCF752FA0246FB68D31A022B02D903233C
:104F7000FB7405E0314B1B6803F48073002BEFD00A
:104F8000FB7C002B5CD12C4BD3F8903003F44073A6
:104F90007B617B69002B1FD07B68D3F884307A69F2
:104FA0009A4219D0244BD3F8903023F440737B619C
:104FB000214BD3F89030204A43F48033C2F890302C
:104FC0001D4BD3F890301C4A23F48033C2F8903044
:104FD000194A7B69C2F890307B6903F00103002B0A
:104FE00016D0FCF711FAF8600BE0FCF70DFA024658
:104FF000FB68D31A41F28832934202D90323FB742F
:1050000006E00D4BD3F8903003F00203002BECD0F8
:10501000FB7C002B0CD1084BD3F8903023F440726A
:105020007B68D3F8843004491343C1F8903009E019
:10503000FB7CBB7406E000BF001002400070004023
:10504000FB7CBB747B7C012B05D19E4B9B6D9D4AE9
:1050500023F0805393657B681B6803F00103002BEA
:105060000AD0984BD3F8883023F003027B689B6BFF
:1050700094491343C1F888307B681B6803F002032E
:10508000002B0AD08F4BD3F8883023F00C027B68BA
:10509000DB6B8C491343C1F888307B681B6803F0D5
:1050A0000403002B0AD0874BD3F8883023F030025A
:1050B0007B681B6C83491343C1F888307B681B688D
:1050C00003F00803002B0AD07E4BD3F8883023F07E
:1050D000C0027B685B6C7B491343C1F888307B68F6
:1050E0001B6803F01003002B0AD0764BD3F88830EE
:1050F00023F440727B689B6C72491343C1F888307B
:105100007B681B6803F02003002B0AD06D4BD3F89B
:10511000883023F440627B68DB6C6A491343C1F832
:1051200088307B681B6803F40073002B0AD0654B42
:10513000D3F8883023F440227B68DB6D6149134348
:10514000C1F888307B681B6803F48063002B0AD0A9
:105150005C4BD3F8883023F440127B681B6E5949AE
:105160001343C1F888307B681B6803F04003002BB1
:105170000AD0544BD3F8883023F440527B681B6D1F
:1051800050491343C1F888307B681B6803F08003E3
:10519000002B0AD04B4BD3F8883023F440427B6875
:1051A0005B6D48491343C1F888307B681B6803F482
:1051B0008073002B0AD0434BD3F8883023F440325D
:1051C0007B689B6D3F491343C1F888307B681B683F
:1051D00003F40053002B28D03A4BD3F8883023F047
:1051E00040627B68DB6E37491343C1F888307B68C7
:1051F000DB6EB3F1006F06D1324BDB68314A43F40A
:105200008013D36011E07B68DB6EB3F1806F0CD14B
:105210007B6804330121184601F0CAF90346FB7488
:10522000FB7C002B01D0FB7CBB747B681B6803F408
:105230000023002B28D0234BD3F8883023F0406282
:105240007B681B6F1F491343C1F888307B681B6F55
:10525000B3F1006F06D11B4BDB681A4A43F480138D
:10526000D36011E07B681B6FB3F1806F0CD17B685A
:1052700004330121184601F09BF90346FB74FB7CC3
:10528000002B01D0FB7CBB747B681B6803F480237C
:10529000002B2BD00B4BD3F8883023F040627B6877
:1052A0005B6F08491343C1F888307B685B6FB3F1CB
:1052B000006F09D1034BDB68024A43F48013D360CB
:1052C00014E000BF001002407B685B6FB3F1806F99
:1052D0000CD17B6804330121184601F069F90346BB
:1052E000FB74FB7C002B01D0FB7CBB747B681B68D0
:1052F00003F48043002B2FD02B4BD3F8883023F0BE
:1053000040527B689B6F28491343C1F888307B6803
:105310009B6FB3F1805F0DD17B6804330221184687
:1053200001F046F90346FB74FB7C002B14D0FB7C98
:10533000BB7411E07B689B6FB3F1005F0CD17B689D
:1053400020330221184601F027FA0346FB74FB7C48
:10535000002B01D0FB7CBB747B681B6803F400430B
:10536000002B0AD0104BD3F8883023F080427B68A2
:10537000DB6F0D491343C1F888307B681B6803F469
:105380008033002B0BD0084BD3F8883023F0004239
:105390007B68D3F8803004491343C1F88830BB7C64
:1053A00018461837BD4680BD0010024080B483B057
:1053B00000AF78607B68734A1A60734BDB6803F058
:1053C00003027B685A60704BDB681B0903F007031C
:1053D0005A1C7B689A606C4B1B691B0A03F07F02A6
:1053E0007B68DA60684B1B695B0C1B0103F01003E0
:1053F000DA1D7B681A61644B1B695B0D03F00303C4
:1054000001335A007B685A615F4B1B695B0E03F0E6
:10541000030301335A007B689A617B685A687B6892
:105420001A627B689A687B685A62574B5B691B0AF1
:1054300003F07F027B689A62534B5B695B0C1B0134
:1054400003F01003DA1D7B68DA624F4B5B695B0E79
:1054500003F0030301335A007B681A634A4BD3F805
:10546000883003F003027B689A63474BD3F8883097
:1054700003F00C027B68DA63434BD3F8883003F007
:1054800030027B681A64404BD3F8883003F0C002C6
:105490007B685A643C4BD3F8883003F440727B68D5
:1054A0009A64394BD3F8883003F440627B68DA643D
:1054B000354BD3F8883003F440527B681A65324B81
:1054C000D3F8883003F440427B685A652E4BD3F8FA
:1054D000883003F440327B689A652B4BD3F88830D0
:1054E00003F440227B68DA65274BD3F8883003F455
:1054F00040127B681A66244BD3F8883003F44002CC
:105500007B685A66204BD3F8883003F040727B6882
:105510009A661D4BD3F8903003F440727B68C3F851
:105520008420194BD3F8883003F040627B68DA6638
:10553000154BD3F8883003F040627B681A67124B32
:10554000D3F8883003F040627B685A670E4BD3F87B
:10555000883003F040527B689A670B4BD3F8883051
:1055600003F080427B68DA67074BD3F8883003F09A
:1055700000427B68C3F8802000BF0C37BD465DF851
:10558000047B7047FFFF0F000010024080B588B019
:1055900000AF78600023FB617B68B3F5003F3ED12C
:1055A000B24BD3F8903003F440733B613B69B3F5E1
:1055B000407F28D03B69B3F5407F00F242853B69CC
:1055C000B3F5807F05D03B69B3F5007F0ED000F0C6
:1055D00038BDA64BD3F8903003F00203022B40F005
:1055E00032854FF40043FB6100F02DBD9F4BD3F893
:1055F000943003F00203022B40F027854FF4FA4366
:10560000FB6100F022BD994B1B6803F40033B3F536
:10561000003F40F01C85964BFB6100F018BD934B9A
:10562000DB6803F003037B617B69032B36D07B6966
:10563000032B40D87B69012B03D07B69022B20D040
:1056400039E08A4B1B6803F00203022B16D1874B0B
:105650001B6803F00803002B05D0844B1B681B0953
:1056600003F00F0305E0814BD3F894301B0A03F0DD
:105670000F03804A52F82330BB611FE00023BB6157
:105680001CE07A4B1B6803F48063B3F5806F02D192
:10569000794BBB6112E00023BB610FE0734B1B68C9
:1056A00003F40033B3F5003F02D1744BBB6105E056
:1056B0000023BB6102E00023BB6100BF7B68B3F540
:1056C000002F00F0DD807B68B3F5002F00F2C1846D
:1056D0007B68B3F5802F00F0D3807B68B3F5802F13
:1056E00000F2B7847B68B3F5803F00F05F837B688E
:1056F000B3F5803F00F2AD847B68B3F5004F00F056
:105700007E847B68B3F5004F00F2A3847B68B3F519
:10571000804F00F0CD827B68B3F5804F00F2998412
:105720007B68B3F5005F00F0AB807B68B3F5005F8A
:1057300000F28F847B68B3F5805F00F090807B6817
:10574000B3F5805F00F285847B68B3F5006F7FD08E
:105750007B68B3F5006F00F27C847B68B3F5806FE3
:1057600000F003847B68B3F5806F00F272847B687D
:10577000B3F5007F00F0AF837B68B3F5007F00F2E4
:1057800068847B68B3F5807F00F079837B68B3F52C
:10579000807F00F25E847B68802B00F044837B680E
:1057A000802B00F256847B68202B4BD87B68002B23
:1057B00000F04F847B68013B1F2B00F24A8401A25A
:1057C00052F823F0AD5900081B5A00085360000836
:1057D000AF5A000853600008536000085360000887
:1057E000355B0008536000085360000853600008F0
:1057F00053600008536000085360000853600008BD
:10580000AD5B000853600008536000085360000857
:10581000536000085360000853600008536000089C
:10582000536000085360000853600008536000088C
:10583000536000085360000853600008536000087C
:105840002F5C00087B68402B00F0C18200F001BC97
:10585000B9694FF4006001F07DF8F861FAE3B969C5
:105860004FF4805001F076F8F861F3E30010024045
:1058700090D00300DCC800080024F40000127A0075
:10588000A94BD3F8883003F040633B613B69B3F127
:10589000406F0CD03B69B3F1406F7FD83B69B3F1E7
:1058A000806F4ED03B69B3F1006F1DD076E09E4B08
:1058B0001B6803F00203022B72D19B4B1B6803F0A1
:1058C0000803002B05D0984B1B681B0903F00F033E
:1058D00005E0954BD3F894301B0A03F00F03934A6D
:1058E00052F82330FB615BE08F4B1B6803F00073C1
:1058F000B3F1007F56D18C4BDB6803F48013B3F512
:10590000801F4FD1884BDB681B0A03F07F03FB60CD
:10591000BB69FA6803FB02F2834BDB681B0903F0E7
:1059200007030133B2FBF3F3BB617F4BDB685B0D15
:1059300003F0030301335B00BA69B2FBF3F3FB61CD
:1059400030E0794B1B6803F00063B3F1006F2BD19B
:10595000754B1B6903F48013B3F5801F24D1724B80
:105960001B691B0A03F07F03FB60BB69FA6803FB3A
:1059700002F26D4BDB681B0903F007030133B2FB36
:10598000F3F3BB61684B1B695B0D03F00303013349
:105990005B00BA69B2FBF3F3FB6105E000BF59E3BA
:1059A00000BF57E300BF55E300BF53E35E4BD3F89E
:1059B000883003F003033B613B69032B27D801A226
:1059C00052F823F0D5590008DD590008E5590008C0
:1059D000F959000804F07AFDF8611DE004F0C8FCF4
:1059E000F86119E0504B1B6803F48063B3F5806FD6
:1059F0000FD14F4BFB610CE04B4BD3F8903003F0D1
:105A00000203022B07D14FF40043FB6103E000BF08
:105A100020E300BF1EE300BF1CE3434BD3F88830F4
:105A200003F00C033B613B690C2B3AD801A252F8FE
:105A300023F000BF695A0008A35A0008A35A0008BF
:105A4000A35A0008715A0008A35A0008A35A000874
:105A5000A35A0008795A0008A35A0008A35A00085C
:105A6000A35A00088D5A000804F01AFDF8611DE0E1
:105A700004F07EFCF86119E02B4B1B6803F4806393
:105A8000B3F5806F0FD12A4BFB610CE0264BD3F8A6
:105A9000903003F00203022B07D14FF40043FB6167
:105AA00003E000BFD6E200BFD4E200BFD2E21E4B4B
:105AB000D3F8883003F030033B613B69302B21D0B1
:105AC0003B69302B29D83B69202B11D03B69202B17
:105AD00023D83B69002B03D03B69102B04D01CE07A
